:100000000C9473000C94A4000C94A4000C94A40011
:100010000C94A4000C94A4000C94A4000C94A400D0
:100020000C94A4000C94A4000C94A4000C94A400C0
:100030000C94A4000C94A4000C94A4000C94A400B0
:100040000C94A4000C94A4000C94A4000C94A400A0
:100050000C94A4000C94A4000C94A4000C94080527
:100060000C94A4000C946A010C943E020C94A4001D
:100070000C94A4000C94A4000C94A4000C94A40070
:100080000C94A4000C94A4000C94A4000C94A40060
:100090000C9497010C947D020C94A4000C94A40081
:1000A0000C94A4000C94A4000C94A4000C94A40040
:1000B0000C94A4000C94A4000C94A4000C94A40030
:1000C0000C94A4000C94A4000C94A4000C94C401FF
:1000D0000C94BC020C94A4000C94F1010C94FB024F
:1000E0000C94A400B80311241FBECFEFD1E2DEBFF1
:1000F000CDBF00E00CBF12E0A0E0B2E0EAEBFBE015
:1001000000E00BBF02C007900D92AC31B107D9F7E8
:1001100014E0ACE1B2E001C01D92A13CB107E1F7EF
:1001200010E0C6EED0E000E006C022970109FE0113
:100130000BBF0E94D705C43ED10780E00807A9F78E
:100140000E948E040C94B2050C9400008CE394E0A1
:1001500040E855E260E070E00E943A0308958CE3C5
:1001600094E060E072E00E94F5040895FC0184854B
:100170009585FC01E05CFF4F208131818E5B9F4FB4
:10018000FC0180819181281B390B2F733070C901CC
:100190000895FC0184859585FC01E05CFF4F40815A
:1001A0005181FC01EE5BFF4F2081318142175307E3
:1001B00041F00190F081E02DE80FF91F208130E03F
:1001C00002C02FEF3FEFC9010895FC01848595859A
:1001D000FC01E05CFF4F40815181FC01EE5BFF4F71
:1001E000208131814217530771F0A081B181A80F9E
:1001F000B91F2C918081918101968F7390709183AA
:10020000808330E002C02FEF3FEFC9010895DC0189
:100210001E968D919C911F97FC01E05CFF4F8E5BB9
:100220009F4F40815181DC012D913C9111974217E4
:100230005307B9F70895FC0126853785D901A05CDD
:10024000BF4F8D919C9101968F739070D901AE5BD9
:10025000BF4F4D915C91119784179507D1F3D90148
:10026000A05CBF4F0D90BC91A02DA20FB31F6C934B
:10027000A685B785A05CBF4F11969C938E93A689E7
:10028000B7892C9181E090E0058C02C0880F991FFE
:100290000A94E2F7282B2C9381E090E00895FB016B
:1002A000E05CFF4F208131812F5F3F4F2F73307013
:1002B000DB01AE5BBF4F4D915C9111972417350761
:1002C00039F0A081B181A60FB71F8C9331832083B1
:1002D000089508951F920F920FB60F920BB60F92CA
:1002E00011242F933F934F935F936F937F938F933B
:1002F0009F93AF93BF93EF93FF938091C6006CE100
:1003000072E00E944F01FF91EF91BF91AF919F91D9
:100310008F917F916F915F914F913F912F910F90AE
:100320000BBE0F900FBE0F901F90189508951F924F
:100330000F920FB60F920BB60F9211242F933F938B
:100340004F935F936F937F938F939F93AF93BF93DD
:10035000EF93FF938091CE0064EA72E00E944F0118
:10036000FF91EF91BF91AF919F918F917F916F918D
:100370005F914F913F912F910F900BBE0F900FBE49
:100380000F901F90189508951F920F920FB60F921D
:100390000BB60F9211242F933F934F935F936F935C
:1003A0007F938F939F93AF93BF93EF93FF9380912E
:1003B000D6006CE273E00E944F01FF91EF91BF9174
:1003C000AF919F918F917F916F915F914F913F91ED
:1003D0002F910F900BBE0F900FBE0F901F9018958E
:1003E00008951F920F920FB60F920BB60F92112421
:1003F0002F933F934F935F936F937F938F939F932D
:10040000AF93BF93EF93FF938091360164EB73E05A
:100410000E944F01FF91EF91BF91AF919F918F91FA
:100420007F916F915F914F913F912F910F900BBEF4
:100430000F900FBE0F901F9018958CE394E00E94D0
:10044000B600009711F00E9469018BE594E00E94CC
:10045000B600009711F00E9496018AE794E00E948E
:10046000B600009711F00E94C30189E994E00E9450
:10047000B600009711F00E94F00108951F920F92AC
:100480000FB60F920BB60F9211242F933F938F93B9
:100490009F93EF93FF932091A0023091A10280914E
:1004A000A2029091A3022817390731F48091C1006C
:1004B0008F7D8093C10014C0E091A202F091A3024D
:1004C000E05AFD4F20818091A2029091A3020196F3
:1004D0008F7390709093A3028093A2022093C60022
:1004E000FF91EF919F918F913F912F910F900BBEB4
:1004F0000F900FBE0F901F9018951F920F920FB67E
:100500000F920BB60F9211242F933F938F939F93CB
:10051000EF93FF93209128033091290380912A03C0
:1005200090912B032817390731F48091C9008F7DF2
:100530008093C90014C0E0912A03F0912B03E85185
:10054000FD4F208180912A0390912B0301968F7398
:10055000907090932B0380932A032093CE00FF91F9
:10056000EF919F918F913F912F910F900BBE0F9024
:100570000FBE0F901F9018951F920F920FB60F92FB
:100580000BB60F9211242F933F938F939F93EF936A
:10059000FF932091B0033091B1038091B203909109
:1005A000B3032817390731F48091D1008F7D8093F0
:1005B000D10014C0E091B203F091B303E059FC4FB5
:1005C00020818091B2039091B30301968F73907054
:1005D0009093B3038093B2032093D600FF91EF91E1
:1005E0009F918F913F912F910F900BBE0F900FBE57
:1005F0000F901F9018951F920F920FB60F920BB687
:100600000F9211242F933F938F939F93EF93FF9318
:10061000209138043091390480913A0490913B0440
:100620002817390731F4809131018F7D8093310192
:1006300014C0E0913A04F0913B04E850FC4F208153
:1006400080913A0490913B0401968F73907090933F
:100650003B0480933A0420933601FF91EF919F91E0
:100660008F913F912F910F900BBE0F900FBE0F9067
:100670001F901895DF92EF92FF920F931F93CF93E5
:10068000DF93EC017A018B01DD24D394403081EEBD
:10069000580780E0680780E0780749F4DD24EC899A
:1006A000FD89108260E874E88EE190E00FC0EC896B
:1006B000FD8981E090E00E8C02C0880F991F0A949A
:1006C000E2F7808360E079E08DE390E0A801970194
:1006D0000E94B50521503040404050405695479506
:1006E0003795279580E12030380710F0DD20B1F6EE
:1006F000E889F9893083EA89FB892083EE89FF89BB
:10070000408181E090E09C010A8C02C0220F331FDF
:100710000A94E2F7422B4083EE89FF8940819C01D5
:100720000B8C02C0220F331F0A94E2F7422B408346
:10073000EE89FF8940819C010C8C02C0220F331F7F
:100740000A94E2F7422B4083EE89FF8920810D8CC9
:1007500002C0880F991F0A94E2F780958223808354
:10076000DF91CF911F910F91FF90EF90DF9008954F
:100770001F93CF93DF9310923F0410923E0488EEB4
:1007800093E0A0E0B0E08093400490934104A093F4
:100790004204B0934304EEE3F4E020E132E032930C
:1007A00022934CE152E05587448740E652E0578758
:1007B000468745EC50E0518B408B44EC50E0538B26
:1007C000428B40EC50E0558B448B41EC50E0578B12
:1007D000468B46EC50E0518F408F14E0128F73E04F
:1007E000738F67E0648F55E0558F41E0468F10921C
:1007F0005E0410925D0480935F0490936004A09364
:100800006104B0936204EDE5F4E032932293C4EA0C
:10081000D2E0D587C487C8EED2E0D787C687CDECB3
:10082000D0E0D18BC08BCCECD0E0D38BC28BC8ECAA
:10083000D0E0D58BC48BC9ECD0E0D78BC68BCEEC87
:10084000D0E0D18FC08F128F738F648F558F468FFA
:1008500010927D0410927C0480937E0490937F0418
:10086000A0938004B0938104ECE7F4E032932293E8
:10087000CCE2D3E0D587C487C0E7D3E0D787C6876B
:10088000C5EDD0E0D18BC08BC4EDD0E0D38BC28B53
:10089000C0EDD0E0D58BC48BC1EDD0E0D78BC68B3B
:1008A000C6EDD0E0D18FC08F128F738F648F558FBC
:1008B000468F10929C0410929B0480939D04909309
:1008C0009E04A0939F04B093A004EBE9F4E032935C
:1008D000229384EB93E09587848788EF93E0978752
:1008E000868785E391E0918B808B84E391E0938B05
:1008F000828B80E391E0958B848B81E391E0978BF1
:10090000868B86E391E0918F808F128F738F648F37
:10091000558F468FDF91CF911F910895CF93DF932D
:100920000E9450050E94A600CDE1D2E00E94AF00D7
:100930002097E1F30E941D02F9CFCF92DF92EF9250
:10094000FF920F931F93CF93DF936C017B018A017A
:10095000C0E0D0E00FC0D7016D917D01D601ED91CF
:10096000FC910190F081E02DC6011995C80FD91FA7
:10097000015010400115110571F7CE01DF91CF91A3
:100980001F910F91FF90EF90DF90CF900895DB01C2
:100990000D900020E9F7AD0141505040461B570B28
:1009A000DC01ED91FC910280F381E02D1995089511
:1009B000DC01ED91FC910190F081E02D19950895F5
:1009C0000F931F93CF93DF93EC016DE00E94D80447
:1009D0008C01CE016AE00E94D804080F191FC801DB
:1009E000DF91CF911F910F9108950F931F93CF9394
:1009F000DF93EC010E94C7048C01CE010E94E00449
:100A0000080F191FC801DF91CF911F910F91089511
:100A10001F920F920FB60F9211242F933F938F9333
:100A20009F93AF93BF938091BC049091BD04A0911C
:100A3000BE04B091BF043091C0040196A11DB11D48
:100A4000232F2D5F2D3720F02D570196A11DB11DAD
:100A50002093C0048093BC049093BD04A093BE0473
:100A6000B093BF048091B8049091B904A091BA04E6
:100A7000B091BB040196A11DB11D8093B804909361
:100A8000B904A093BA04B093BB04BF91AF919F91F6
:100A90008F913F912F910F900FBE0F901F9018953F
:100AA000789484B5826084BD84B5816084BD85B549
:100AB000826085BD85B5816085BDEEE6F0E0808110
:100AC00081608083E1E8F0E0108280818260808331
:100AD000808181608083E0E8F0E0808181608083B4
:100AE000E1EBF0E0808184608083E0EBF0E08081E6
:100AF00081608083E1E9F0E0808182608083808191
:100B000081608083E0E9F0E0808181608083E1EAB8
:100B1000F0E0808182608083808181608083E0EA70
:100B2000F0E0808181608083E1E2F1E08081826099
:100B30008083808181608083E0E2F1E08081816058
:100B40008083EAE7F0E08081846080838081826036
:100B5000808380818160808380818068808310921F
:100B6000C1000895F8940C94DB05A1E21A2EAA1B8B
:100B7000BB1BFD010DC0AA1FBB1FEE1FFF1FA2174D
:100B8000B307E407F50720F0A21BB30BE40BF50B4A
:100B9000661F771F881F991F1A9469F760957095D3
:100BA000809590959B01AC01BD01CF010895079000
:0A0BB000F691E02D1994F894FFCFA0
:100BBA0048656C6C6F20576F726C6400000000000F
:0C0BCA001B019D04B600E500C9000701F6
:00000001FF
